{
  "_format": "hh-sol-artifact-1",
  "contractName": "database",
  "sourceName": "contracts/database.sol",
  "abi": [
    {
      "inputs": [],
      "stateMutability": "nonpayable",
      "type": "constructor"
    },
    {
      "anonymous": false,
      "inputs": [
        {
          "indexed": false,
          "internalType": "uint256",
          "name": "_count",
          "type": "uint256"
        },
        {
          "indexed": false,
          "internalType": "string",
          "name": "_Fullname",
          "type": "string"
        },
        {
          "indexed": false,
          "internalType": "string",
          "name": "_Major",
          "type": "string"
        },
        {
          "indexed": false,
          "internalType": "uint256",
          "name": "_id_number",
          "type": "uint256"
        },
        {
          "indexed": false,
          "internalType": "uint256",
          "name": "_GPA",
          "type": "uint256"
        },
        {
          "indexed": false,
          "internalType": "string",
          "name": "_DOB",
          "type": "string"
        },
        {
          "indexed": false,
          "internalType": "string",
          "name": "s",
          "type": "string"
        }
      ],
      "name": "Deletes",
      "type": "event"
    },
    {
      "anonymous": false,
      "inputs": [
        {
          "indexed": false,
          "internalType": "uint256",
          "name": "_count",
          "type": "uint256"
        },
        {
          "indexed": false,
          "internalType": "string",
          "name": "_Fullname",
          "type": "string"
        },
        {
          "indexed": false,
          "internalType": "string",
          "name": "_Major",
          "type": "string"
        },
        {
          "indexed": false,
          "internalType": "uint256",
          "name": "_id_number",
          "type": "uint256"
        },
        {
          "indexed": false,
          "internalType": "uint256",
          "name": "_GPA",
          "type": "uint256"
        },
        {
          "indexed": false,
          "internalType": "string",
          "name": "_DOB",
          "type": "string"
        }
      ],
      "name": "NewStudentadded",
      "type": "event"
    },
    {
      "anonymous": false,
      "inputs": [
        {
          "indexed": false,
          "internalType": "string",
          "name": "_Major",
          "type": "string"
        },
        {
          "indexed": false,
          "internalType": "uint256",
          "name": "_GPA",
          "type": "uint256"
        }
      ],
      "name": "update",
      "type": "event"
    },
    {
      "inputs": [
        {
          "internalType": "string",
          "name": "Fullname",
          "type": "string"
        },
        {
          "internalType": "string",
          "name": "Major",
          "type": "string"
        },
        {
          "internalType": "uint256",
          "name": "id_number",
          "type": "uint256"
        },
        {
          "internalType": "uint256",
          "name": "GPA",
          "type": "uint256"
        },
        {
          "internalType": "string",
          "name": "DOB",
          "type": "string"
        }
      ],
      "name": "addNewStudent",
      "outputs": [],
      "stateMutability": "nonpayable",
      "type": "function"
    },
    {
      "inputs": [
        {
          "internalType": "uint256",
          "name": "",
          "type": "uint256"
        }
      ],
      "name": "all",
      "outputs": [
        {
          "internalType": "string",
          "name": "Fulname",
          "type": "string"
        },
        {
          "internalType": "string",
          "name": "Major",
          "type": "string"
        },
        {
          "internalType": "string",
          "name": "DOB",
          "type": "string"
        },
        {
          "internalType": "uint256",
          "name": "id_number",
          "type": "uint256"
        },
        {
          "internalType": "uint256",
          "name": "GPA",
          "type": "uint256"
        }
      ],
      "stateMutability": "view",
      "type": "function"
    },
    {
      "inputs": [
        {
          "internalType": "string",
          "name": "a",
          "type": "string"
        },
        {
          "internalType": "string",
          "name": "b",
          "type": "string"
        }
      ],
      "name": "concatenate",
      "outputs": [
        {
          "internalType": "string",
          "name": "",
          "type": "string"
        }
      ],
      "stateMutability": "pure",
      "type": "function"
    },
    {
      "inputs": [],
      "name": "count",
      "outputs": [
        {
          "internalType": "uint256",
          "name": "",
          "type": "uint256"
        }
      ],
      "stateMutability": "view",
      "type": "function"
    },
    {
      "inputs": [
        {
          "internalType": "string",
          "name": "name",
          "type": "string"
        }
      ],
      "name": "deleteStudent",
      "outputs": [],
      "stateMutability": "nonpayable",
      "type": "function"
    },
    {
      "inputs": [],
      "name": "getAllStudent",
      "outputs": [
        {
          "internalType": "string[]",
          "name": "",
          "type": "string[]"
        }
      ],
      "stateMutability": "view",
      "type": "function"
    },
    {
      "inputs": [],
      "name": "getCount",
      "outputs": [
        {
          "internalType": "uint256",
          "name": "",
          "type": "uint256"
        }
      ],
      "stateMutability": "view",
      "type": "function"
    },
    {
      "inputs": [
        {
          "internalType": "string",
          "name": "fullname",
          "type": "string"
        }
      ],
      "name": "getStudent",
      "outputs": [
        {
          "components": [
            {
              "internalType": "string",
              "name": "Fulname",
              "type": "string"
            },
            {
              "internalType": "string",
              "name": "Major",
              "type": "string"
            },
            {
              "internalType": "string",
              "name": "DOB",
              "type": "string"
            },
            {
              "internalType": "uint256",
              "name": "id_number",
              "type": "uint256"
            },
            {
              "internalType": "uint256",
              "name": "GPA",
              "type": "uint256"
            }
          ],
          "internalType": "struct database.ObjectStruct",
          "name": "",
          "type": "tuple"
        }
      ],
      "stateMutability": "view",
      "type": "function"
    },
    {
      "inputs": [
        {
          "internalType": "uint256",
          "name": "",
          "type": "uint256"
        }
      ],
      "name": "keys",
      "outputs": [
        {
          "internalType": "string",
          "name": "",
          "type": "string"
        }
      ],
      "stateMutability": "view",
      "type": "function"
    },
    {
      "inputs": [
        {
          "internalType": "string",
          "name": "Fullname",
          "type": "string"
        },
        {
          "internalType": "string",
          "name": "Major",
          "type": "string"
        },
        {
          "internalType": "uint256",
          "name": "GPA",
          "type": "uint256"
        }
      ],
      "name": "updateStudent",
      "outputs": [],
      "stateMutability": "nonpayable",
      "type": "function"
    }
  ],
  "bytecode": "0x6080604052600080553480156200001557600080fd5b50620000cf6040518060400160405280600e81526020017f44616d6f792057696c6c69616d730000000000000000000000000000000000008152506040518060400160405280600381526020017f43495300000000000000000000000000000000000000000000000000000000008152506320610d6460036040518060400160405280600a81526020017f313939372f30342f323800000000000000000000000000000000000000000000815250620000d560201b60201c565b62000626565b600080815480929190620000e99062000569565b919050555060016040518060a0016040528087815260200186815260200183815260200185815260200184815250908060018154018082558091505060019003906000526020600020906005020160009091909190915060008201518160000190805190602001906200015e929190620002f8565b5060208201518160010190805190602001906200017d929190620002f8565b5060408201518160020190805190602001906200019c929190620002f8565b50606082015181600301556080820151816004015550506040518060a0016040528086815260200185815260200182815260200184815260200183815250600386604051620001ec919062000431565b9081526020016040518091039020600082015181600001908051906020019062000218929190620002f8565b50602082015181600101908051906020019062000237929190620002f8565b50604082015181600201908051906020019062000256929190620002f8565b506060820151816003015560808201518160040155905050600285908060018154018082558091505060019003906000526020600020016000909190919091509080519060200190620002ab929190620002f8565b507fd042d6663ae5903ef2bb44397f7eae8cbbf68300199436257502bfcf742fc3336000548686868686604051620002e9969594939291906200044a565b60405180910390a15050505050565b828054620003069062000533565b90600052602060002090601f0160209004810192826200032a576000855562000376565b82601f106200034557805160ff191683800117855562000376565b8280016001018555821562000376579182015b828111156200037557825182559160200191906001019062000358565b5b50905062000385919062000389565b5090565b5b80821115620003a45760008160009055506001016200038a565b5090565b6000620003b582620004cc565b620003c18185620004d7565b9350620003d3818560208601620004fd565b620003de8162000615565b840191505092915050565b6000620003f682620004cc565b620004028185620004e8565b935062000414818560208601620004fd565b80840191505092915050565b6200042b81620004f3565b82525050565b60006200043f8284620003e9565b915081905092915050565b600060c08201905062000461600083018962000420565b8181036020830152620004758188620003a8565b905081810360408301526200048b8187620003a8565b90506200049c606083018662000420565b620004ab608083018562000420565b81810360a0830152620004bf8184620003a8565b9050979650505050505050565b600081519050919050565b600082825260208201905092915050565b600081905092915050565b6000819050919050565b60005b838110156200051d57808201518184015260208101905062000500565b838111156200052d576000848401525b50505050565b600060028204905060018216806200054c57607f821691505b60208210811415620005635762000562620005e6565b5b50919050565b60006200057682620004f3565b91507fffffffffffffffffffffffffffffffffffffffffffffffffffffffffffffffff821415620005ac57620005ab620005b7565b5b600182019050919050565b7f4e487b7100000000000000000000000000000000000000000000000000000000600052601160045260246000fd5b7f4e487b7100000000000000000000000000000000000000000000000000000000600052602260045260246000fd5b6000601f19601f8301169050919050565b611ae280620006366000396000f3fe608060405234801561001057600080fd5b506004361061009e5760003560e01c80636114730c116100665780636114730c1461015b5780638955895f1461018f578063a87d942c146101ab578063d0296612146101c9578063f66f2c31146101f95761009e565b806306661abd146100a35780630cb6aaf1146100c1578063133d0460146100f1578063266001d31461010f57806342391c991461013f575b600080fd5b6100ab610215565b6040516100b891906116cf565b60405180910390f35b6100db60048036038101906100d6919061131f565b61021b565b6040516100e891906115f3565b60405180910390f35b6100f96102c7565b60405161010691906115d1565b60405180910390f35b61012960048036038101906101249190611175565b6103a0565b60405161013691906115f3565b60405180910390f35b610159600480360381019061015491906111e1565b6103cc565b005b6101756004803603810190610170919061131f565b6104e4565b604051610186959493929190611615565b60405180910390f35b6101a960048036038101906101a49190611134565b6106c2565b005b6101b3610af8565b6040516101c091906116cf565b60405180910390f35b6101e360048036038101906101de9190611134565b610b01565b6040516101f091906116ad565b60405180910390f35b610213600480360381019061020e9190611260565b610d09565b005b60005481565b6002818154811061022b57600080fd5b9060005260206000200160009150905080546102469061197c565b80601f01602080910402602001604051908101604052809291908181526020018280546102729061197c565b80156102bf5780601f10610294576101008083540402835291602001916102bf565b820191906000526020600020905b8154815290600101906020018083116102a257829003601f168201915b505050505081565b60606002805480602002602001604051908101604052809291908181526020016000905b8282101561039757838290600052602060002001805461030a9061197c565b80601f01602080910402602001604051908101604052809291908181526020018280546103369061197c565b80156103835780601f1061035857610100808354040283529160200191610383565b820191906000526020600020905b81548152906001019060200180831161036657829003601f168201915b5050505050815260200190600101906102eb565b50505050905090565b606082826040516020016103b59291906115ad565b604051602081830303815290604052905092915050565b60006003846040516103de9190611596565b908152602001604051809103902060040154146104df5760008114610424578060038460405161040e9190611596565b9081526020016040518091039020600401819055505b6000825114610464578160038460405161043e9190611596565b90815260200160405180910390206001019080519060200190610462929190610f18565b505b7f4ee5c2ee1b6856282fd0957f6c18e640aa59a93dbec4f5b271aedecee76f6d8e6003846040516104959190611596565b90815260200160405180910390206001016003856040516104b69190611596565b9081526020016040518091039020600401546040516104d692919061167d565b60405180910390a15b505050565b600181815481106104f457600080fd5b90600052602060002090600502016000915090508060000180546105179061197c565b80601f01602080910402602001604051908101604052809291908181526020018280546105439061197c565b80156105905780601f1061056557610100808354040283529160200191610590565b820191906000526020600020905b81548152906001019060200180831161057357829003601f168201915b5050505050908060010180546105a59061197c565b80601f01602080910402602001604051908101604052809291908181526020018280546105d19061197c565b801561061e5780601f106105f35761010080835404028352916020019161061e565b820191906000526020600020905b81548152906001019060200180831161060157829003601f168201915b5050505050908060020180546106339061197c565b80601f016020809104026020016040519081016040528092919081815260200182805461065f9061197c565b80156106ac5780601f10610681576101008083540402835291602001916106ac565b820191906000526020600020905b81548152906001019060200180831161068f57829003601f168201915b5050505050908060030154908060040154905085565b60006003826040516106d49190611596565b90815260200160405180910390206004015414610af4576003816040516106fb9190611596565b90815260200160405180910390206000808201600061071a9190610f9e565b60018201600061072a9190610f9e565b60028201600061073a9190610f9e565b60038201600090556004820160009055505060008081548092919061075e90611952565b919050555060606000805b600160028054905061077b91906118d2565b81116109c657600281815481106107bb577f4e487b7100000000000000000000000000000000000000000000000000000000600052603260045260246000fd5b9060005260206000200180546107d09061197c565b80601f01602080910402602001604051908101604052809291908181526020018280546107fc9061197c565b80156108495780601f1061081e57610100808354040283529160200191610849565b820191906000526020600020905b81548152906001019060200180831161082c57829003601f168201915b50505050509250836040516020016108619190611596565b60405160208183030381529060405280519060200120836040516020016108889190611596565b6040516020818303038152906040528051906020012014156109b357600260016002805490506108b891906118d2565b815481106108ef577f4e487b7100000000000000000000000000000000000000000000000000000000600052603260045260246000fd5b9060005260206000200160028281548110610933577f4e487b7100000000000000000000000000000000000000000000000000000000600052603260045260246000fd5b906000526020600020019080546109499061197c565b610954929190610fde565b50600280548061098d577f4e487b7100000000000000000000000000000000000000000000000000000000600052603160045260246000fd5b6001900381819060005260206000200160006109a99190610f9e565b9055505050610af5565b80806109be906119ae565b915050610769565b507f233c4cf14a25e00d01568c438b7d2142e663f85ae1696dbd6d40614406eee8706000546003856040516109fb9190611596565b9081526020016040518091039020600001600386604051610a1c9190611596565b9081526020016040518091039020600201600387604051610a3d9190611596565b908152602001604051809103902060040154600388604051610a5f9190611596565b908152602001604051809103902060030154600389604051610a819190611596565b908152602001604051809103902060010160028881548110610acc577f4e487b7100000000000000000000000000000000000000000000000000000000600052603260045260246000fd5b90600052602060002001604051610ae99796959493929190611760565b60405180910390a150505b5b50565b60008054905090565b610b0961106b565b6000600383604051610b1b9190611596565b90815260200160405180910390206040518060a0016040529081600082018054610b449061197c565b80601f0160208091040260200160405190810160405280929190818152602001828054610b709061197c565b8015610bbd5780601f10610b9257610100808354040283529160200191610bbd565b820191906000526020600020905b815481529060010190602001808311610ba057829003601f168201915b50505050508152602001600182018054610bd69061197c565b80601f0160208091040260200160405190810160405280929190818152602001828054610c029061197c565b8015610c4f5780601f10610c2457610100808354040283529160200191610c4f565b820191906000526020600020905b815481529060010190602001808311610c3257829003601f168201915b50505050508152602001600282018054610c689061197c565b80601f0160208091040260200160405190810160405280929190818152602001828054610c949061197c565b8015610ce15780601f10610cb657610100808354040283529160200191610ce1565b820191906000526020600020905b815481529060010190602001808311610cc457829003601f168201915b5050505050815260200160038201548152602001600482015481525050905080915050919050565b600080815480929190610d1b906119ae565b919050555060016040518060a001604052808781526020018681526020018381526020018581526020018481525090806001815401808255809150506001900390600052602060002090600502016000909190919091506000820151816000019080519060200190610d8e929190610f18565b506020820151816001019080519060200190610dab929190610f18565b506040820151816002019080519060200190610dc8929190610f18565b50606082015181600301556080820151816004015550506040518060a0016040528086815260200185815260200182815260200184815260200183815250600386604051610e169190611596565b90815260200160405180910390206000820151816000019080519060200190610e40929190610f18565b506020820151816001019080519060200190610e5d929190610f18565b506040820151816002019080519060200190610e7a929190610f18565b506060820151816003015560808201518160040155905050600285908060018154018082558091505060019003906000526020600020016000909190919091509080519060200190610ecd929190610f18565b507fd042d6663ae5903ef2bb44397f7eae8cbbf68300199436257502bfcf742fc3336000548686868686604051610f09969594939291906116ea565b60405180910390a15050505050565b828054610f249061197c565b90600052602060002090601f016020900481019282610f465760008555610f8d565b82601f10610f5f57805160ff1916838001178555610f8d565b82800160010185558215610f8d579182015b82811115610f8c578251825591602001919060010190610f71565b5b509050610f9a919061109a565b5090565b508054610faa9061197c565b6000825580601f10610fbc5750610fdb565b601f016020900490600052602060002090810190610fda919061109a565b5b50565b828054610fea9061197c565b90600052602060002090601f01602090048101928261100c576000855561105a565b82601f1061101d578054855561105a565b8280016001018555821561105a57600052602060002091601f016020900482015b8281111561105957825482559160010191906001019061103e565b5b509050611067919061109a565b5090565b6040518060a0016040528060608152602001606081526020016060815260200160008152602001600081525090565b5b808211156110b357600081600090555060010161109b565b5090565b60006110ca6110c58461181c565b6117eb565b9050828152602081018484840111156110e257600080fd5b6110ed848285611910565b509392505050565b600082601f83011261110657600080fd5b81356111168482602086016110b7565b91505092915050565b60008135905061112e81611a95565b92915050565b60006020828403121561114657600080fd5b600082013567ffffffffffffffff81111561116057600080fd5b61116c848285016110f5565b91505092915050565b6000806040838503121561118857600080fd5b600083013567ffffffffffffffff8111156111a257600080fd5b6111ae858286016110f5565b925050602083013567ffffffffffffffff8111156111cb57600080fd5b6111d7858286016110f5565b9150509250929050565b6000806000606084860312156111f657600080fd5b600084013567ffffffffffffffff81111561121057600080fd5b61121c868287016110f5565b935050602084013567ffffffffffffffff81111561123957600080fd5b611245868287016110f5565b92505060406112568682870161111f565b9150509250925092565b600080600080600060a0868803121561127857600080fd5b600086013567ffffffffffffffff81111561129257600080fd5b61129e888289016110f5565b955050602086013567ffffffffffffffff8111156112bb57600080fd5b6112c7888289016110f5565b94505060406112d88882890161111f565b93505060606112e98882890161111f565b925050608086013567ffffffffffffffff81111561130657600080fd5b611312888289016110f5565b9150509295509295909350565b60006020828403121561133157600080fd5b600061133f8482850161111f565b91505092915050565b600061135483836113d1565b905092915050565b600061136782611871565b6113718185611894565b9350836020820285016113838561184c565b8060005b858110156113bf57848403895281516113a08582611348565b94506113ab83611887565b925060208a01995050600181019050611387565b50829750879550505050505092915050565b60006113dc8261187c565b6113e681856118a5565b93506113f681856020860161191f565b6113ff81611a84565b840191505092915050565b60006114158261187c565b61141f81856118b6565b935061142f81856020860161191f565b61143881611a84565b840191505092915050565b600061144e8261187c565b61145881856118c7565b935061146881856020860161191f565b80840191505092915050565b600081546114818161197c565b61148b81866118b6565b945060018216600081146114a657600181146114b8576114eb565b60ff19831686526020860193506114eb565b6114c18561185c565b60005b838110156114e3578154818901526001820191506020810190506114c4565b808801955050505b50505092915050565b600060a083016000830151848203600086015261151182826113d1565b9150506020830151848203602086015261152b82826113d1565b9150506040830151848203604086015261154582826113d1565b915050606083015161155a6060860182611578565b50608083015161156d6080860182611578565b508091505092915050565b61158181611906565b82525050565b61159081611906565b82525050565b60006115a28284611443565b915081905092915050565b60006115b98285611443565b91506115c58284611443565b91508190509392505050565b600060208201905081810360008301526115eb818461135c565b905092915050565b6000602082019050818103600083015261160d818461140a565b905092915050565b600060a082019050818103600083015261162f818861140a565b90508181036020830152611643818761140a565b90508181036040830152611657818661140a565b90506116666060830185611587565b6116736080830184611587565b9695505050505050565b600060408201905081810360008301526116978185611474565b90506116a66020830184611587565b9392505050565b600060208201905081810360008301526116c781846114f4565b905092915050565b60006020820190506116e46000830184611587565b92915050565b600060c0820190506116ff6000830189611587565b8181036020830152611711818861140a565b90508181036040830152611725818761140a565b90506117346060830186611587565b6117416080830185611587565b81810360a0830152611753818461140a565b9050979650505050505050565b600060e082019050611775600083018a611587565b81810360208301526117878189611474565b9050818103604083015261179b8188611474565b90506117aa6060830187611587565b6117b76080830186611587565b81810360a08301526117c98185611474565b905081810360c08301526117dd8184611474565b905098975050505050505050565b6000604051905081810181811067ffffffffffffffff8211171561181257611811611a55565b5b8060405250919050565b600067ffffffffffffffff82111561183757611836611a55565b5b601f19601f8301169050602081019050919050565b6000819050602082019050919050565b60008190508160005260206000209050919050565b600081519050919050565b600081519050919050565b6000602082019050919050565b600082825260208201905092915050565b600082825260208201905092915050565b600082825260208201905092915050565b600081905092915050565b60006118dd82611906565b91506118e883611906565b9250828210156118fb576118fa6119f7565b5b828203905092915050565b6000819050919050565b82818337600083830152505050565b60005b8381101561193d578082015181840152602081019050611922565b8381111561194c576000848401525b50505050565b600061195d82611906565b91506000821415611971576119706119f7565b5b600182039050919050565b6000600282049050600182168061199457607f821691505b602082108114156119a8576119a7611a26565b5b50919050565b60006119b982611906565b91507fffffffffffffffffffffffffffffffffffffffffffffffffffffffffffffffff8214156119ec576119eb6119f7565b5b600182019050919050565b7f4e487b7100000000000000000000000000000000000000000000000000000000600052601160045260246000fd5b7f4e487b7100000000000000000000000000000000000000000000000000000000600052602260045260246000fd5b7f4e487b7100000000000000000000000000000000000000000000000000000000600052604160045260246000fd5b6000601f19601f8301169050919050565b611a9e81611906565b8114611aa957600080fd5b5056fea2646970667358221220b530d3d37348f40f34eec30860b98fdf12187fa1eff62771b98a508616019bc464736f6c63430008000033",
  "linkReferences": {},
  "deployedLinkReferences": {}
}