{
    "_format": "hh-sol-artifact-1",
    "contractName": "database",
    "sourceName": "contracts/database.sol",
    "abi": [
        {
            "inputs": [],
            "stateMutability": "nonpayable",
            "type": "constructor"
        },
        {
            "anonymous": false,
            "inputs": [
                {
                    "indexed": false,
                    "internalType": "uint256",
                    "name": "_count",
                    "type": "uint256"
                },
                {
                    "indexed": false,
                    "internalType": "string",
                    "name": "_Fullname",
                    "type": "string"
                },
                {
                    "indexed": false,
                    "internalType": "string",
                    "name": "_Major",
                    "type": "string"
                },
                {
                    "indexed": false,
                    "internalType": "uint256",
                    "name": "_id_number",
                    "type": "uint256"
                },
                {
                    "indexed": false,
                    "internalType": "uint256",
                    "name": "_GPA",
                    "type": "uint256"
                },
                {
                    "indexed": false,
                    "internalType": "string",
                    "name": "_DOB",
                    "type": "string"
                }
            ],
            "name": "NewStudentadded",
            "type": "event"
        },
        {
            "inputs": [
                {
                    "internalType": "string",
                    "name": "Fullname",
                    "type": "string"
                },
                {
                    "internalType": "string",
                    "name": "Major",
                    "type": "string"
                },
                {
                    "internalType": "uint256",
                    "name": "id_number",
                    "type": "uint256"
                },
                {
                    "internalType": "uint256",
                    "name": "GPA",
                    "type": "uint256"
                },
                {
                    "internalType": "string",
                    "name": "DOB",
                    "type": "string"
                }
            ],
            "name": "addNewStudent",
            "outputs": [],
            "stateMutability": "nonpayable",
            "type": "function"
        },
        {
            "inputs": [],
            "name": "count",
            "outputs": [
                {
                    "internalType": "uint256",
                    "name": "",
                    "type": "uint256"
                }
            ],
            "stateMutability": "view",
            "type": "function"
        },
        {
            "inputs": [],
            "name": "getCount",
            "outputs": [
                {
                    "internalType": "uint256",
                    "name": "",
                    "type": "uint256"
                }
            ],
            "stateMutability": "view",
            "type": "function"
        },
        {
            "inputs": [
                {
                    "internalType": "string",
                    "name": "fullname",
                    "type": "string"
                }
            ],
            "name": "getStudent",
            "outputs": [
                {
                    "components": [
                        {
                            "internalType": "string",
                            "name": "Fulname",
                            "type": "string"
                        },
                        {
                            "internalType": "string",
                            "name": "Major",
                            "type": "string"
                        },
                        {
                            "internalType": "string",
                            "name": "DOB",
                            "type": "string"
                        },
                        {
                            "internalType": "uint256",
                            "name": "id_number",
                            "type": "uint256"
                        },
                        {
                            "internalType": "uint256",
                            "name": "GPA",
                            "type": "uint256"
                        }
                    ],
                    "internalType": "struct database.ObjectStruct",
                    "name": "",
                    "type": "tuple"
                }
            ],
            "stateMutability": "view",
            "type": "function"
        }
    ],
    "bytecode": "0x6080604052600080553480156200001557600080fd5b50620000cf6040518060400160405280600e81526020017f44616d6f792057696c6c69616d730000000000000000000000000000000000008152506040518060400160405280600381526020017f43495300000000000000000000000000000000000000000000000000000000008152506320610d6460036040518060400160405280600a81526020017f313939372f30342f323800000000000000000000000000000000000000000000815250620000d560201b60201c565b62000523565b600080815480929190620000e99062000466565b91905055506040518060a00160405280868152602001858152602001828152602001848152602001838152506001866040516200012791906200032e565b9081526020016040518091039020600082015181600001908051906020019062000153929190620001f5565b50602082015181600101908051906020019062000172929190620001f5565b50604082015181600201908051906020019062000191929190620001f5565b5060608201518160030155608082015181600401559050507fd042d6663ae5903ef2bb44397f7eae8cbbf68300199436257502bfcf742fc3336000548686868686604051620001e69695949392919062000347565b60405180910390a15050505050565b828054620002039062000430565b90600052602060002090601f01602090048101928262000227576000855562000273565b82601f106200024257805160ff191683800117855562000273565b8280016001018555821562000273579182015b828111156200027257825182559160200191906001019062000255565b5b50905062000282919062000286565b5090565b5b80821115620002a157600081600090555060010162000287565b5090565b6000620002b282620003c9565b620002be8185620003d4565b9350620002d0818560208601620003fa565b620002db8162000512565b840191505092915050565b6000620002f382620003c9565b620002ff8185620003e5565b935062000311818560208601620003fa565b80840191505092915050565b6200032881620003f0565b82525050565b60006200033c8284620002e6565b915081905092915050565b600060c0820190506200035e60008301896200031d565b8181036020830152620003728188620002a5565b90508181036040830152620003888187620002a5565b90506200039960608301866200031d565b620003a860808301856200031d565b81810360a0830152620003bc8184620002a5565b9050979650505050505050565b600081519050919050565b600082825260208201905092915050565b600081905092915050565b6000819050919050565b60005b838110156200041a578082015181840152602081019050620003fd565b838111156200042a576000848401525b50505050565b600060028204905060018216806200044957607f821691505b6020821081141562000460576200045f620004e3565b5b50919050565b60006200047382620003f0565b91507fffffffffffffffffffffffffffffffffffffffffffffffffffffffffffffffff821415620004a957620004a8620004b4565b5b600182019050919050565b7f4e487b7100000000000000000000000000000000000000000000000000000000600052601160045260246000fd5b7f4e487b7100000000000000000000000000000000000000000000000000000000600052602260045260246000fd5b6000601f19601f8301169050919050565b610aad80620005336000396000f3fe608060405234801561001057600080fd5b506004361061004c5760003560e01c806306661abd14610051578063a87d942c1461006f578063d02966121461008d578063f66f2c31146100bd575b600080fd5b6100596100d9565b60405161006691906107d1565b60405180910390f35b6100776100df565b60405161008491906107d1565b60405180910390f35b6100a760048036038101906100a29190610553565b6100e8565b6040516100b491906107af565b60405180910390f35b6100d760048036038101906100d29190610594565b6102f0565b005b60005481565b60008054905090565b6100f0610404565b60006001836040516101029190610798565b90815260200160405180910390206040518060a001604052908160008201805461012b90610947565b80601f016020809104026020016040519081016040528092919081815260200182805461015790610947565b80156101a45780601f10610179576101008083540402835291602001916101a4565b820191906000526020600020905b81548152906001019060200180831161018757829003601f168201915b505050505081526020016001820180546101bd90610947565b80601f01602080910402602001604051908101604052809291908181526020018280546101e990610947565b80156102365780601f1061020b57610100808354040283529160200191610236565b820191906000526020600020905b81548152906001019060200180831161021957829003601f168201915b5050505050815260200160028201805461024f90610947565b80601f016020809104026020016040519081016040528092919081815260200182805461027b90610947565b80156102c85780601f1061029d576101008083540402835291602001916102c8565b820191906000526020600020905b8154815290600101906020018083116102ab57829003601f168201915b5050505050815260200160038201548152602001600482015481525050905080915050919050565b60008081548092919061030290610979565b91905055506040518060a001604052808681526020018581526020018281526020018481526020018381525060018660405161033e9190610798565b90815260200160405180910390206000820151816000019080519060200190610368929190610433565b506020820151816001019080519060200190610385929190610433565b5060408201518160020190805190602001906103a2929190610433565b5060608201518160030155608082015181600401559050507fd042d6663ae5903ef2bb44397f7eae8cbbf68300199436257502bfcf742fc33360005486868686866040516103f5969594939291906107ec565b60405180910390a15050505050565b6040518060a0016040528060608152602001606081526020016060815260200160008152602001600081525090565b82805461043f90610947565b90600052602060002090601f01602090048101928261046157600085556104a8565b82601f1061047a57805160ff19168380011785556104a8565b828001600101855582156104a8579182015b828111156104a757825182559160200191906001019061048c565b5b5090506104b591906104b9565b5090565b5b808211156104d25760008160009055506001016104ba565b5090565b60006104e96104e484610893565b610862565b90508281526020810184848401111561050157600080fd5b61050c848285610905565b509392505050565b600082601f83011261052557600080fd5b81356105358482602086016104d6565b91505092915050565b60008135905061054d81610a60565b92915050565b60006020828403121561056557600080fd5b600082013567ffffffffffffffff81111561057f57600080fd5b61058b84828501610514565b91505092915050565b600080600080600060a086880312156105ac57600080fd5b600086013567ffffffffffffffff8111156105c657600080fd5b6105d288828901610514565b955050602086013567ffffffffffffffff8111156105ef57600080fd5b6105fb88828901610514565b945050604061060c8882890161053e565b935050606061061d8882890161053e565b925050608086013567ffffffffffffffff81111561063a57600080fd5b61064688828901610514565b9150509295509295909350565b600061065e826108c3565b61066881856108ce565b9350610678818560208601610914565b61068181610a4f565b840191505092915050565b6000610697826108c3565b6106a181856108df565b93506106b1818560208601610914565b6106ba81610a4f565b840191505092915050565b60006106d0826108c3565b6106da81856108f0565b93506106ea818560208601610914565b80840191505092915050565b600060a08301600083015184820360008601526107138282610653565b9150506020830151848203602086015261072d8282610653565b915050604083015184820360408601526107478282610653565b915050606083015161075c606086018261077a565b50608083015161076f608086018261077a565b508091505092915050565b610783816108fb565b82525050565b610792816108fb565b82525050565b60006107a482846106c5565b915081905092915050565b600060208201905081810360008301526107c981846106f6565b905092915050565b60006020820190506107e66000830184610789565b92915050565b600060c0820190506108016000830189610789565b8181036020830152610813818861068c565b90508181036040830152610827818761068c565b90506108366060830186610789565b6108436080830185610789565b81810360a0830152610855818461068c565b9050979650505050505050565b6000604051905081810181811067ffffffffffffffff8211171561088957610888610a20565b5b8060405250919050565b600067ffffffffffffffff8211156108ae576108ad610a20565b5b601f19601f8301169050602081019050919050565b600081519050919050565b600082825260208201905092915050565b600082825260208201905092915050565b600081905092915050565b6000819050919050565b82818337600083830152505050565b60005b83811015610932578082015181840152602081019050610917565b83811115610941576000848401525b50505050565b6000600282049050600182168061095f57607f821691505b60208210811415610973576109726109f1565b5b50919050565b6000610984826108fb565b91507fffffffffffffffffffffffffffffffffffffffffffffffffffffffffffffffff8214156109b7576109b66109c2565b5b600182019050919050565b7f4e487b7100000000000000000000000000000000000000000000000000000000600052601160045260246000fd5b7f4e487b7100000000000000000000000000000000000000000000000000000000600052602260045260246000fd5b7f4e487b7100000000000000000000000000000000000000000000000000000000600052604160045260246000fd5b6000601f19601f8301169050919050565b610a69816108fb565b8114610a7457600080fd5b5056fea26469706673582212200831b75b08f223cd1449a9a1a82549acb6ae304212983a86b027f9265d8e09fd64736f6c63430008000033",
    "linkReferences": {},
    "deployedLinkReferences": {}
}